:10000000FE2F00308A000408840A820700344F342F
:100010006E34203420340034533474346234203449
:10002000003441346E347434203400344F346E3430
:0E003000203448340034982F9C2FA02FA42F8A
:100DFE008312031305128610861185110610080042
:100E0E0083120313051186100611851106100800B2
:100E1E008312031386100611861185110610080021
:100E2E008312031305110512861086118511061003
:100E3E000800831203130511051286100611861180
:100E4E008511080083120313051505168610061565
:100E5E008611851506100800831203130515051655
:100E6E0086140615861585150614080083120313BD
:100E7E000515051686140611861185110610080033
:100E8E008312031306168616061786170515051602
:100E9E00861406158615851506140800831203138D
:100EAE00101007309F0083160313051485140511C7
:100EBE008511051285120517851706108610061165
:100ECE00861106128612061386134727F930F40090
:100EDE000000F40B6F2F732F000083120313851C79
:100EEE007A2F0130892F05188518822F851F051B33
:100EFE00822F0630892F851F862F1030892F051FD0
:100F0E008A2F0B308C274727742FF100F201F30143
:100F1E00003073020430031972020318FC2F4727A6
:100F2E00A82F831203130612CB2F831203138612DC
:100F3E00CB2F831203130613CB2F831203138613A7
:100F4E00CB2F7308003A0319AD2FCB2F72088400F4
:100F5E00043004020318CB2F00308A001B30040724
:100F6E008200CB2F1727E82F0F27E82FFF26E82F19
:100F7E002927E82F2027E82F0727E82F3D27E82FDE
:100F8E003327E82F3327E82F7208710784000120DA
:100F9E00203A0319C72F613A0319B92F093A0319D9
:100FAE00BD2F073A0319C12F1C3A0319C32F313A2B
:100FBE000319BB2F0C3A0319BF2F1A3A0319C52F69
:100FCE00C92FF930F0000000F00BEA2FEE2F0000D1
:100FDE000130F2070318F30A0030F30700307302F2
:100FEE00043003197202031C962F47270800830151
:020FFE00552F6D
:02400E0018FF99
:00000001FF
