:10000000FE2F00308A000408840A820700344F342F
:100010006E34203448340034533474346234003441
:1000200041346E34743400344F346E340034A22FB3
:06003000A62FAA2FAE2F3F
:100E2A008312031386108611061008008312031317
:100E3A008611851106100800831203130512861005
:100E4A0086118511061008008312031305118610F6
:100E5A000611851106100800831203138610061165
:100E6A008611851106100800831203130511051255
:100E7A0086108611851106100800831203130515C2
:100E8A00051686140615861585150614080083129C
:100E9A0003130616861606178617051505168614F1
:100EAA0006158615851506140800831203131010FB
:100EBA0007309F0083160313051485140511851145
:100ECA000512851205178517061486140615861548
:100EDA000612861206138613F930F4000000F40B8A
:100EEA00732F772F000083120313851C7E2F0E3079
:100EFA0096278312031305188518882F851F051B4B
:100F0A00882F0630962783120313851F8E2F0130F0
:100F1A00962783120313051F942F0A3096274C270E
:100F2A00782FF100F201F301003073020430031943
:100F3A007202031808004C27B22F831203130612F9
:100F4A00D32F831203138612D32F8312031306138C
:100F5A00D32F831203138613D32F7308003A03196E
:100F6A00B72FD32F72088400043004020318D32F3A
:100F7A0000308A00173004078200D32F3927F02F58
:100F8A003127F02F2127F02F1527F02F2927F02FAF
:100F9A001B27F02F4227F02F4C27F02F72087107DA
:100FAA0084000120203A0319CF2F613A0319C32F75
:100FBA00093A0319C72F073A0319F02F1C3A0319E4
:100FCA00CB2F313A0319C52F0C3A0319C92F1A3AF4
:100FDA000319CD2FD12FF930F0000000F00BF22FBA
:100FEA00F62F00000130F2070318F30A0030F30766
:060FFA00992F83015A2F1C
:02400E0018FF99
:00000001FF
